:020000040800F2
:1000000000000220F17A00085578000857780008AF
:10001000597800085B7800085D780008000000004F
:100020000000000000000000000000005F780008F1
:100030006178000800000000637800086578000817
:10004000417B0008417B0008417B0008417B0008A0
:10005000417B0008417B000873780008797800082C
:100060007F78000885780008417B0008417B000804
:10007000417B0008417B0008417B0008417B000870
:100080008D780008417B0008417B0008417B000817
:10009000417B0008417B0008417B000899780008FB
:1000A000417B0008A1780008417B0008417B0008E3
:1000B000417B0008417B0008417B0008417B000830
:1000C000417B0008417B0008417B0008417B000820
:1000D000417B0008417B0008417B0008417B000810
:1000E000417B0008417B0008417B0008417B000800
:1000F000417B0008417B0008417B0008417B0008F0
:10010000417B0008AD780008417B0008417B000876
:10011000417B0008417B0008B9780008417B00085A
:10012000C5780008417B0008417B0008D1780008B1
:10013000417B0008417B0008417B0008417B0008AF
:10014000417B0008417B0008417B0008417B00089F
:10015000417B0008DD780008417B0008417B0008F6
:10016000417B0008417B0008417B0008417B00087F
:10017000417B0008417B0008417B00080000000033
:08018000417B0008417B0008EF
:1001900010B5054C237833B9044B13B10448AFF3C1
:1001A00000800123237010BD88060020000000009D
:1001B00084D0000808B5034B1BB103490348AFF3D3
:1001C000008008BD000000008C06002084D00008DC
:1001D00001F0FF01102A2BDB10F0070F08D010F8F8
:1001E000013B013A8B422DD010F0070F42B3F6D1FC
:1001F000F0B441EA012141EA014122F007047FF015
:1002000000070023F0E80256083C85EA010586EA6B
:10021000010685FA47F5A3FA87F586FA47F6A5FAA7
:1002200087F68EB9EED1F0BC01F0FF0102F00702B3
:1002300032B110F8013B013A83EA010313B1F8D15E
:100240000020704701387047002D06BF354603383F
:10025000073815F0010F07D1013015F4807F02BF78
:10026000013015F4C03F0130F0BC0138704700BFC9
:10027000034613F8012B002AFBD1181A01387047E6
:1002800081F0004102E000BF83F0004330B54FEA47
:1002900041044FEA430594EA050F08BF90EA020FB4
:1002A0001FBF54EA000C55EA020C7FEA645C7FEA47
:1002B000655C00F0E2804FEA5454D4EB5555B8BF6A
:1002C0006D420CDD2C4480EA020281EA030382EADB
:1002D000000083EA010180EA020281EA0303362D6D
:1002E00088BF30BD11F0004F4FEA01314FF4801C40
:1002F0004CEA113102D0404261EB410113F0004F52
:100300004FEA03334CEA133302D0524263EB430308
:1003100094EA050F00F0A780A4F10104D5F1200EA6
:100320000DDB02FA0EFC22FA05F2801841F1000101
:1003300003FA0EF2801843FA05F359410EE0A5F1D5
:1003400020050EF1200E012A03FA0EFC28BF4CF006
:10035000020C43FA05F3C01851EBE37101F00045BC
:1003600007D54FF0000EDCF1000C7EEB00006EEBC9
:100370000101B1F5801F1BD3B1F5001F0CD3490853
:100380005FEA30004FEA3C0C04F101044FEA4452AA
:1003900012F5800F80F09A80BCF1004F08BF5FEA31
:1003A000500C50F1000041EB045141EA050130BD11
:1003B0005FEA4C0C404141EB010111F4801FA4F1B4
:1003C0000104E9D191F0000F04BF01460020B1FA09
:1003D00081F308BF2033A3F10B03B3F120020CDA41
:1003E0000C3208DD02F1140CC2F10C0201FA0CF01F
:1003F00021FA02F10CE002F11402D8BFC2F1200C84
:1004000001FA02F120FA0CFCDCBF41EA0C01904039
:10041000E41AA2BF01EB0451294330BD6FEA040482
:100420001F3C1CDA0C340EDC04F11404C4F120026D
:1004300020FA04F001FA02F340EA030021FA04F37F
:1004400045EA030130BDC4F10C04C4F1200220FAD6
:1004500002F001FA04F340EA0300294630BD21FA14
:1004600004F0294630BD94F0000F83F4801306BFDA
:1004700081F480110134013D4EE77FEA645C18BFCE
:100480007FEA655C29D094EA050F08BF90EA020F65
:1004900005D054EA000C04BF1946104630BD91EA5D
:1004A000030F1EBF0021002030BD5FEA545C05D160
:1004B0004000494128BF41F0004130BD14F580049F
:1004C0003CBF01F5801130BD01F0004545F0FE4113
:1004D00041F470014FF0000030BD7FEA645C1ABF48
:1004E000194610467FEA655C1CBF0B46024650EA7F
:1004F000013406BF52EA033591EA030F41F40021AB
:1005000030BD00BF90F0000F04BF0021704730B530
:100510004FF4806404F132044FF000054FF0000105
:1005200050E700BF90F0000F04BF0021704730B5C6
:100530004FF4806404F1320410F0004548BF40429B
:100540004FF000013EE700BF42004FEAE2014FEAF0
:1005500031014FEA02701FBF12F07F4393F07F4FCB
:1005600081F06051704792F0000F14BF93F07F4FFD
:10057000704730B54FF4607401F0004521F0004140
:1005800020E700BF50EA010208BF704730B54FF0C6
:1005900000050AE050EA010208BF704730B511F0CB
:1005A000004502D5404261EB41014FF4806404F103
:1005B00032045FEA915C3FF4DCAE4FF003025FEA85
:1005C000DC0C18BF03325FEADC0C18BF033202EB0D
:1005D000DC02C2F1200300FA03FC20FA02F001FA67
:1005E00003FE40EA0E0021FA02F11444C1E600BF06
:1005F00070B54FF0FF0C4CF4E06C1CEA11541DBFB9
:100600001CEA135594EA0C0F95EA0C0F00F0DEF883
:100610002C4481EA030621EA4C5123EA4C5350EA68
:10062000013518BF52EA033541F4801143F48013B9
:1006300038D0A0FB02CE4FF00005E1FB02E506F04A
:100640000042E0FB03E54FF00006E1FB03569CF09F
:10065000000F18BF4EF0010EA4F1FF04B6F5007FA5
:1006600064F5407404D25FEA4E0E6D4146EB060617
:1006700042EAC62141EA55514FEAC52040EA5E50A0
:100680004FEACE2EB4F1FD0C88BFBCF5E06F1ED84A
:10069000BEF1004F08BF5FEA500E50F1000041EB81
:1006A000045170BD06F0004646EA010140EA02002E
:1006B00081EA0301B4EB5C04C2BFD4EB0C0541EA50
:1006C000045170BD41F480114FF0000E013C00F365
:1006D000AB8014F1360FDEBF002001F0004170BD89
:1006E000C4F10004203C35DA0C341BDC04F11404A2
:1006F000C4F1200500FA05F320FA04F001FA05F22E
:1007000040EA020001F0004221F0004110EBD370FA
:1007100021FA04F642EB06015EEA430E08BF20EA26
:10072000D37070BDC4F10C04C4F1200500FA04F3C9
:1007300020FA05F001FA04F240EA020001F000415B
:1007400010EBD37041F100015EEA430E08BF20EACE
:10075000D37070BDC4F1200500FA05F24EEA020E16
:1007600020FA04F301FA05F243EA020321FA04F045
:1007700001F0004121FA04F220EA020000EBD370FC
:100780005EEA430E08BF20EAD37070BD94F0000FFC
:100790000FD101F00046400041EB010111F4801F30
:1007A00008BF013CF7D041EA060195F0000F18BFE1
:1007B000704703F00046520043EB030313F4801F1D
:1007C00008BF013DF7D043EA0603704794EA0C0FD7
:1007D0000CEA135518BF95EA0C0F0CD050EA4106ED
:1007E00018BF52EA4306D1D181EA030101F000416A
:1007F0004FF0000070BD50EA410606BF1046194692
:1008000052EA430619D094EA0C0F02D150EA01369D
:1008100013D195EA0C0F05D152EA03361CBF1046DE
:1008200019460AD181EA030101F0004141F0FE417D
:1008300041F470014FF0000070BD41F0FE4141F401
:10084000780170BD70B54FF0FF0C4CF4E06C1CEA01
:1008500011541DBF1CEA135594EA0C0F95EA0C0FB6
:1008600000F0A7F8A4EB050481EA030E52EA033571
:100870004FEA013100F088804FEA03334FF0805592
:1008800045EA131343EA12634FEA022245EA1115BF
:1008900045EA10654FEA00260EF000419D4208BF70
:1008A000964244F1FD0404F5407402D25B084FEA1D
:1008B0003202B61A65EB03055B084FEA32024FF4C9
:1008C00080104FF4002CB6EB020E75EB030E22BF26
:1008D000B61A754640EA0C005B084FEA3202B6EBE6
:1008E000020E75EB030E22BFB61A754640EA5C0095
:1008F0005B084FEA3202B6EB020E75EB030E22BF25
:10090000B61A754640EA9C005B084FEA3202B6EB25
:10091000020E75EB030E22BFB61A754640EADC00E4
:1009200055EA060E18D04FEA051545EA16754FEA46
:1009300006164FEAC30343EA52734FEAC2025FEA64
:100940001C1CC0D111F4801F0BD141EA00014FF0F3
:1009500000004FF0004CB6E711F4801F04BF0143C4
:100960000020B4F1FD0C88BFBCF5E06F3FF6AFAEE0
:10097000B5EB030C04BFB6EB020C5FEA500C50F170
:10098000000041EB045170BD0EF0004E4EEA1131F3
:1009900014EB5C04C2BFD4EB0C0541EA045170BDFA
:1009A00041F480114FF0000E013C90E645EA060E3E
:1009B0008DE60CEA135594EA0C0F08BF95EA0C0F6C
:1009C0003FF43BAF94EA0C0F0AD150EA01347FF4B4
:1009D00034AF95EA0C0F7FF425AF104619462CE78B
:1009E00095EA0C0F06D152EA03353FF4FDAE1046EE
:1009F000194622E750EA410618BF52EA43067FF43F
:100A0000C5AE50EA41047FF40DAF52EA43057FF4CE
:100A1000EBAE12E74FF0FF3C06E000BF4FF0010CD9
:100A200002E000BF4FF0010C4DF804CD4FEA410C3D
:100A30007FEA6C5C4FEA430C18BF7FEA6C5C1BD00A
:100A400001B050EA410C0CBF52EA430C91EA030F8B
:100A500002BF90EA020F0020704710F1000F91EAE8
:100A6000030F58BF994208BF90422CBFD8176FEAB6
:100A7000E37040F0010070474FEA410C7FEA6C5C84
:100A800002D150EA013C07D14FEA430C7FEA6C5C8B
:100A9000D6D152EA033CD3D05DF8040B704700BFB7
:100AA0008446104662468C461946634600E000BF05
:100AB00001B5FFF7B7FF002848BF10F1000F01BDD7
:100AC0004DF808EDFFF7F4FF0CBF012000205DF8A2
:100AD00008FB00BF4DF808EDFFF7EAFF34BF012027
:100AE00000205DF808FB00BF4DF808EDFFF7E0FFC0
:100AF00094BF012000205DF808FB00BF4DF808ED11
:100B0000FFF7CEFF94BF012000205DF808FB00BF77
:100B10004DF808EDFFF7C4FF34BF012000205DF859
:100B200008FB00BF4FEA410C7FEA6C5C02D150EA3F
:100B3000013C0AD14FEA430C7FEA6C5C02D152EAD5
:100B4000033C02D14FF0000070474FF001007047A6
:100B50004FEA410212F5001215D211D56FF47873E5
:100B6000B3EB625212D94FEAC12343F0004343EA88
:100B7000505311F0004F23FA02F018BF4042704763
:100B80004FF00000704750EA013005D111F00040ED
:100B900008BF6FF0004070474FF00000704700BF83
:100BA0004A0011D212F5001211D20DD56FF47873EC
:100BB000B3EB62520ED44FEAC12343F0004343EA41
:100BC000505323FA02F070474FF00000704750EA8C
:100BD000013002D14FF0FF3070474FF000007047F6
:100BE0004FEA4102B2F1E04324BFB3F5001CDCF14F
:100BF000FE5C0DD901F0004C4FEAC0024CEA507087
:100C0000B2F1004F40EB830008BF20F001007047B5
:100C100011F0804F21D113F13872BCBF01F00040B8
:100C2000704741F480114FEA5252C2F11802C2F1EA
:100C3000200C10FA0CF320FA02F018BF40F001006B
:100C40004FEAC1234FEAD32303FA0CFC40EA0C001D
:100C500023FA02F34FEA4303CCE77FEA625307D15A
:100C600050EA01331EBF4FF0FE4040F44000704791
:100C700001F0004040F0FE4040F40000704700BF2B
:100C800053B94AB9002908BF00281CBF4FF0FF31F3
:100C90004FF0FF3000F07AB9ADF1080C6DE904CEE9
:100CA00000F006F8DDF804E0DDE9022304B0704747
:100CB0002DE9F0478C460D460446089E002B51D185
:100CC0008A4217466DD9B2FA82FEBEF1000F0BD0F0
:100CD000CEF1200C01FA0EF520FA0CFC02FA0EF708
:100CE0004CEA050C00FA0EF44FEA174A250CBCFB3F
:100CF000FAF81FFA87F90AFB18CC45EA0C4508FBFD
:100D000009F3AB420AD9ED1908F1FF3280F02381D3
:100D1000AB4240F22081A8F102083D44ED1AA4B292
:100D2000B5FBFAF00AFB105544EA054400FB09F94B
:100D3000A14509D9E41900F1FF3380F00A81A145EA
:100D400040F2078102383C44A4EB090440EA084021
:100D50000021002E61D024FA0EF400233460736069
:100D6000BDE8F0878B4207D9002E54D0002186E8D9
:100D700021000846BDE8F087B3FA83F1002940F06E
:100D80008E80AB4202D3824200F2FA80841A65EB75
:100D900003050120AC46002E3FD086E81010BDE8C8
:100DA000F08712B90127B7FBF2F7B7FA87FEBEF159
:100DB000000F34D1EB1B3A0C1FFA87FC0121B3FB67
:100DC000F2F8250C02FB183345EA03450CFB08F347
:100DD000AB4207D9ED1908F1FF3002D2AB4200F265
:100DE000D1808046ED1AA3B2B5FBF2F002FB10559C
:100DF00043EA05440CFB00FCA44507D9E41900F1C3
:100E0000FF3302D2A44500F2B8801846A4EB0C04CC
:100E100040EA08409DE731463046BDE8F087CEF114
:100E2000200405FA0EF307FA0EF720FA04F83A0C3C
:100E300025FA04F448EA0308B4FBF2F14FEA184536
:100E400002FB11441FFA87FC45EA044501FB0CF341
:100E5000AB4200FA0EF409D9ED1901F1FF3080F030
:100E60008A80AB4240F2878002393D44EB1A1FFA78
:100E700088F5B3FBF2F002FB103345EA034500FBB3
:100E80000CF3AB4207D9ED1900F1FF386FD2AB423A
:100E90006DD902383D44EB1A40EA01418FE7C1F1B8
:100EA000200722FA07F88B4005FA01F448EA030309
:100EB00020FA07FE4FEA134CFD404EEA040EB5FB44
:100EC000FCF94FEA1E440CFB19551FFA83F844EA5B
:100ED000054509FB08F4AC4202FA01F200FA01FAF6
:100EE00008D9ED1809F1FF3043D2AC4241D9A9F13C
:100EF00002091D442D1B1FFA8EFEB5FBFCF00CFBF6
:100F000010554EEA054400FB08F8A04507D9E4183F
:100F100000F1FF3529D2A04527D902381C4440EA08
:100F20000940A4EB0804A0FB02894C45C6464D4687
:100F300015D312D056B1BAEB0E0364EB050404FAD4
:100F400007F7CB401F43CC40376074600021BDE8F9
:100F5000F0871846F8E69046E0E6C245EAD2B8EBDC
:100F6000020E69EB03050138E4E72846D7E740465F
:100F700091E78146BEE7014678E702383C4445E701
:100F8000084608E7A8F102083D442BE7704700BF78
:100F900038B50E4A0E4B054618784FF47A73B3FBFA
:100FA000F0F31068B0FBF3F000F0A4FA044658B96F
:100FB0000F2D09D8024629464FF0FF3000F05AFAAB
:100FC000044B20461D6038BD012038BD10000020B4
:100FD000000000200400002008B50B4B1A6842F402
:100FE00000721A601A6842F480621A601A6842F449
:100FF00080721A60032000F02BFA0020FFF7C8FF70
:1010000006F0E0FB002008BD003C0240034A044B10
:1010100011681B780B441360704700BF8467002081
:1010200000000020014B1868704700BF8467002053
:1010300038B50446FFF7F6FF631C1CBF054B1B7851
:10104000054618BFE418FFF7EDFF401B8442FAD8AD
:1010500038BD00BF0000002010B50446002800F095
:101060009980036C23B9436480F83C3004F06CF938
:10107000236CDB0600F18C80236C23F4885323F06F
:10108000020343F002032364434B5A6822F44032C4
:101090005A605A6861680A435A60236821695A682D
:1010A00022F480725A605A6842EA01225A605A68F1
:1010B000A16822F040725A605A680A435A609A68DE
:1010C000E16822F400629A609A680A439A603349A0
:1010D000A26A8A4250D0996821F07061996099683B
:1010E0000A439A609A68E16A22F040529A609A68CC
:1010F0000A439A609A68A16922F002029A609A688B
:1011000042EA41029A60226A002A3DD05A68616A26
:1011100042F400625A605A6822F460425A605A6887
:10112000013942EA41325A60DA6AE16922F4700216
:10113000DA62DA6A013942EA0152DA629A68216BAC
:1011400022F400729A609A6842EA41229A609A6890
:10115000616922F480629A609A68002042EA8122E2
:101160009A606064236C23F0030343F0010323645B
:10117000002384F83C3010BD9A6822F070629A60B7
:101180009A6822F04052B4E75A6822F40062CAE733
:101190000120EDE7012010BD002301400100000FF8
:1011A00037B513460022019290F83C20012A0446EC
:1011B00065D00568012280F83C20AA68D20705D5D1
:1011C000AA68D00715D4002003B030BDAA6842F049
:1011D0000102AA602B4A10682B4AB0FBF2F000EB28
:1011E00040000190019A002AEAD0019A013A019246
:1011F000F8E7206C20F4E06020F0010040F48070FB
:1012000020646A68520541BF206C20F4405040F4CD
:1012100080502064226CA06B12F480521CBF626C60
:1012200022F006026264002284F83C20174AC2635E
:10123000174A0264174AC2646FF022022A606A6881
:1012400042F080626A60AA6842F48072AA600A462C
:1012500005F14C0100F022FB0F4B5B6813F01F0FF0
:10126000236808D1986810F04050ACD19A6842F0D9
:1012700080429A60A8E7094A9342A4D1F2E702208B
:10128000A2E700BF1000002040420F00A11200089A
:10129000031300080F130008002301400020014041
:1012A000836B1A6C12F0500F10B524D11A6C42F4F3
:1012B00000721A641A68916811F0405F17D1996939
:1012C000A9B9D16A11F4700F02D0916849050ED402
:1012D000516821F0200151601A6C22F480721A6466
:1012E0001A6CD2045EBF1A6C42F001021A641846EE
:1012F00004F042FE10BD9B6BBDE81040DB6C18474C
:10130000704708B5806BFFF7FBFF08BD7047806B27
:1013100008B540230364436C43F004034364FFF7C0
:10132000F5FF08BDF7B50023019390F83C30012B81
:1013300000F083800D6804688A680123092D80F815
:101340003C30AEB22AD906EB4603E7681E3B4FF0AD
:10135000070E0EFA03FE27EA0E07E760E76802FAB7
:1013600003F33B43E3604A68062A4FEA820325D829
:101370001344676B591F1F238B4027EA03036363E2
:10138000626B06FA01F1114361632D4B9C4234D02C
:10139000002380F83C30184603B0F0BD276905EB08
:1013A00045034FF0070E0EFA03FE27EA0E072761EA
:1013B000276902FA03F33B432361D4E70C2A0ED8D2
:1013C0001344216BA3F123021F23934021EA03035B
:1013D0002363236B06FA02F21A432263D5E7134410
:1013E000E16A413B1F229A4021EA0202E262E26A7C
:1013F00006FA03F11143E162C7E7122D04D1114A45
:10140000536843F480035360A5F11003012BBFD848
:101410000C4A5368102D43F400035360B8D10A4BB3
:101420000A4A1B68B3FBF2F20A2353430193019B60
:10143000002BADD0019B013BF8E70220ACE700BFD9
:1014400000200140002301401000002040420F0016
:10145000074AD36823F4E0631B041B0C43F0BF630B
:10146000000243F4003300F4E0600343D3607047AC
:1014700000ED00E0174B30B5DC68C4F30224C4F182
:101480000703251D042B28BF0423062D4FF001055B
:1014900005FA03F303F1FF338CBF033C002419402A
:1014A000A14005FA04F4013C2240002842EA01026E
:1014B0004FEA0212AFBF00F1604000F00F00064B90
:1014C000D2B2A5BF00F56140D2B21A5480F8002311
:1014D00030BD00BF00ED00E014ED00E04209012343
:1014E00000F01F0003FA00F0014B43F822007047A0
:1014F00000E100E00138B0F1807F0AD2064B074AD4
:101500005860F02182F823100020072298601A60AA
:1015100070470120704700BF10E000E000ED00E0E0
:10152000044B1A6804280CBF42F0040222F00402A3
:101530001A60704710E000E0704708B5FFF7FCFF45
:1015400008BD10B5044668B1037903F0FF0213B972
:10155000427103F0BBFF02232371002001232061AD
:10156000237110BD012010BDF8B505464079012852
:101570000E464FF002001146069A4CD001246C71C1
:1015800028712C68E6B9A868234FC763234F076406
:10159000234FC7642768042A47F48057276009D07F
:1015A000082A0AD0002A34D104F10802276847F437
:1015B00000571AE004F10C02F8E704F11002F5E715
:1015C000E868184FC763184F0764184FC764276847
:1015D000042A47F08057276013D0082A14D0B2B9E4
:1015E00004F11402276847F00057276000F056F90D
:1015F0002B6801211A68B1401143002019606871FD
:10160000F8BD04F11802EDE704F11C02EAE700223C
:10161000E8E73246CAE7F8BD6B1600087D160008F9
:101620008916000843170008531700085D170008C3
:10163000036810B51A6804464FF48050884022EAC7
:1016400000021A601A680120884022EA00021A602B
:1016500031B9A06800F060F920B10423237110BDF6
:10166000E068F7E70123F9E7704710B5846B20467F
:10167000FFF7FAFF0123237110BD704708B5806B97
:10168000FFF7FBFF08BD704710B5846B236943F07B
:10169000040323612046FFF7F6FF0123237110BDE9
:1016A000704703685A6B910410B504460ED50422A6
:1016B0000271026942F0010202614FF400525A6362
:1016C0001A6822F480521A60FFF7EAFF23685A6B07
:1016D000920011D504222271226942F00202226195
:1016E0004FF000525A631A6822F0805220461A6066
:1016F000BDE8104000F024B810BD4379012B30B58F
:101700004FF0020317D004680371236840F6FE759A
:10171000954023EA05050AC90B4393402B432360F8
:101720002368C02101FA02F223EA020201232260A7
:10173000037100234371184630BD704770477047EE
:10174000704710B5846B2046FFF7F7FF0123237124
:1017500010BD08B5806BFFF7F1FF08BD10B5846BB5
:10176000236943F0040323612046FFF7E8FF0123C8
:10177000237110BD0368DAB223F47F7323F00303EF
:101780001821103AB2FBF1F20449032A88BF04334E
:10179000895C8365C165806D704700BFE8D0000833
:1017A00070B50446FFF73EFC0546002C71D00023BF
:1017B00084F834302268022384F83530136823F02B
:1017C0000103136021680B68D8073CD40B68324DC5
:1017D0006268A0691D40A3681343E268134322694D
:1017E000134362691343E26903431343226A1343B9
:1017F000626A042A43EA050301BF266BE56A3543A2
:101800002B430B604B69042A23F0070343EA0203CE
:101810000BD1A26AE56A13433DB1F8B9012A2DD074
:1018200001D3022A01D1EA012BD44B612046FFF7F4
:10183000A1FFE26D3F239340836000200123606598
:1018400084F8353070BDFFF7EDFB401B0528B9D992
:1018500020236365032084F8350070BDB0F5005F78
:1018600013D1032AE1D801A050F822F08318000810
:1018700027180008831800087D180008B5F1C07FFC
:10188000D3D1402363650120E5E7022AF9D9032A71
:10189000C8E7012070BD00BF3F8010F070B590F820
:1018A0003440012C36D0012480F8344090F8354083
:1018B000866D012C4FF000054FF0020428D180F80E
:1018C000354004684565256825F4802525606360FA
:1018D0008368402B0EBFA260A160E260C26D08BFAA
:1018E000E1603F239340B360236843F01603236015
:1018F000636943F080036361036C1BB1236843F0A9
:1019000008032360236843F001032360002070BDB7
:1019100080F83450022070BD70B50446856DFFF725
:1019200081FB94F83530022B064606D08023636590
:10193000002384F83430012070BD23681A6822F037
:1019400016021A605A6922F080025A61226C0AB9A2
:10195000A26C1AB11A6822F008021A601A6822F002
:1019600001021A602368186810F0010009D1E26DC5
:101970003F239340AB60012384F8340084F8353072
:1019800070BDFFF74FFB801B0528EBD92023636553
:101990000320002384F8343084F8350070BD90F8BB
:1019A0003530022B03D08023436501207047026845
:1019B000052380F83530136823F0010313600020FD
:1019C00070470000F7B5002301935A4B856D1F68DF
:1019D000C36D2E6808229A40164204460CD0016856
:1019E0000868400708D5086820F004000860AA606D
:1019F000626D42F00102626501229A40164208D0EF
:101A000021684969090641BFAA60626D42F002027D
:101A1000626504229A40164208D021680968880746
:101A200041BFAA60626D42F00402626510229A40D2
:101A3000164210D02368196809070CD5AA601A68E5
:101A4000500335D51B68190301D4236C00E0A36C47
:101A50000BB120469847E16D20228A40164238D0CB
:101A600023681868C60634D5AA6094F83520052A7C
:101A70001A6825D122F016021A605A6922F08002F3
:101A80005A61226C0AB9A26C1AB11A6822F00802D3
:101A90001A603F238B40AB60002384F8343001236D
:101AA00084F83530236D0BB12046984703B0F0BD64
:101AB0001A68D2055EBF1A6822F008021A60C4E7ED
:101AC000500328D51B68190332D4636C0BB1204630
:101AD0009847636D002BE9D0636DDA0719D50523AC
:101AE000226884F83530136823F0010313604FF443
:101AF0001653B7FBF3F7019B01339F42019302D3C7
:101B00001368DB07F7D4002384F83430012384F80A
:101B10003530E36CC7E71A6812F4807208D119688F
:101B200021F010011960012384F8342084F8353045
:101B3000E36BCBE7100000202DE9F04F85B00B6878
:101B4000DFF8AC81684ADFF8AC91019300234FF0D5
:101B5000010E019C0EFA03FE0EEA0406B64540F0A3
:101B6000AE804C6824F01007022F16D14FEAD30A3A
:101B700000EB8A0A03F0070BDAF820504FEA8B0BD0
:101B80004FF00F0C0CFA0BFC25EA0C0C0D6905FA52
:101B90000BF545EA0C05CAF820504FEA430A032525
:101BA000D0F800B005FA0AF5ED4304F0030C0BEA97
:101BB000050B0CFA0AFC013F4CEA0B0C012FC0F894
:101BC00000C011D8876807EA050BCF6807FA0AFC3E
:101BD0004CEA0B078760476827EA0E0EC4F300172C
:101BE0009F4047EA0E074760C7683D408F6807FA85
:101BF0000AF73D43C560E50061D54FF0000BCDF815
:101C00000CB0D8F84470394D47F48047C8F8447098
:101C1000D8F8447007F480470397039F23F0030725
:101C200007F1804707F59C3703F0030CD7F808A0AD
:101C30004FEA8C0C4FF00F0E0EFA0CFEA8422AEA67
:101C40000E0E43D005F58065A84241D005F58065AC
:101C5000A8423FD005F58065A8423DD005F58065D6
:101C6000A8423BD048453BD005F50065A84239D095
:101C700005F58065A84214BF0825072505FA0CF56F
:101C800045EA0E05BD601568F74314F4803F0CBFAC
:101C90003D4035431560556814F4003F0CBF3D408E
:101CA00035435560956814F4801F0CBF3D403543A3
:101CB0009560D568A40254BF3D403543D5600133DB
:101CC000102B7FF444AF05B0BDE8F08F5D46D5E73B
:101CD0000125D3E70225D1E70325CFE70425CDE78A
:101CE0000525CBE70625C9E7003C0140000002407E
:101CF00000380240001402400369194214BF012059
:101D0000002070470AB1816170470904FBE70000B9
:101D100008B5044B5969014202D0586105F0F8F842
:101D200008BD00BF003C01400268536913F48063A2
:101D30000DD06FF4806353610423036420220023D9
:101D4000036380F83C3080F83D200120704718463E
:101D500070472DE9F843044617469946C1F30748F2
:101D60008EB22568B8F1010F0CBF6B69AB6936EA1A
:101D7000030314BF0120002008B9BDE8F8836B6994
:101D80005A0512D52B6843F400732B606FF48063FF
:101D90006B610423236420220023236384F83C30F6
:101DA00084F83D200120BDE8F8837B1CD9D04FB9D1
:101DB00000232022236384F83C3084F83D20032054
:101DC000BDE8F883FFF72EF9A0EB09008742C8D2DF
:101DD000EEE72DE9F843089E044690461F46C1F3FE
:101DE00007498DB22368B9F1010F0CBF5B699B698C
:101DF00035EA03030CBF01230023434502D0002032
:101E0000BDE8F8837B1CEDD05FB90023202223635B
:101E100084F83C3084F83D20032084F83E30BDE84F
:101E2000F883FFF7FFF8801B8742DBD2EDE770B540
:101E300004460D46164623685B691B0601D5002043
:101E400070BD2046FFF770FFA8B96A1CF3D065B9D2
:101E5000236C43F02003236420220023236384F8AF
:101E60003C3084F83D20032070BDFFF7DBF8801B79
:101E70008542E0D2ECE7012070BD70B504460D4606
:101E8000164623685B695B0701D5002070BD2046BC
:101E9000FFF74AFFA8B96A1CF3D065B9236C43F079
:101EA0002003236420220023236384F83C3084F839
:101EB0003D20032070BDFFF7B5F8801B8542E0D2BE
:101EC000ECE7012070BD000070B50446002862D028
:101ED00090F83D3003F0FF021BB980F83C2003F07E
:101EE000A5FC22682D4E2E4D242384F83D30136826
:101EF00023F00103136000F07BFB63682268B0FBF2
:101F0000F5F5B34284BF4FF496716943556091BFB4
:101F1000691C4FF47A75B1FBF5F10131B3421162DE
:101F200021D85B00B0FBF3F0C0F30B03032B98BF89
:101F30000420216AE369D0610B431360E1682369DF
:101F40000B439360A16963690B43D360136843F04B
:101F50000103136000202023206484F83D302063B7
:101F600084F83E0070BDA16849B903EB4303B0FBA0
:101F7000F3F0C0F30B0363B140F40040D9E719213B
:101F80004B43B0FBF3F0C0F30B0313B140F44040FC
:101F9000CFE70120CDE7012070BD00BFA086010082
:101FA00040420F002DE9FF4104461F460D46904672
:101FB000FFF738F894F83D30202B064604D0022570
:101FC000284604B0BDE8F0810090192301225D4944
:101FD0002046FFF7FEFE0028F1D194F83C30012B9B
:101FE000EDD0012384F83C3023681A68D2075EBF25
:101FF0001A6842F001021A601A6822F400621A603C
:10200000212284F83D20102284F83E200022226400
:10201000A2F580326785E262628D2285E26AC4F8A9
:102020002480042A04D0012A02D012F5803F04D172
:102030001A6842F480721A6002E0226B122AF7D00A
:1020400000960A9B00224FF001112046FFF7C1FEC7
:1020500028BB23692268B3F5804F12D105F0FE0535
:10206000156133460A9A38492046FFF772FE054645
:10207000A0B9236803905A6903929B690393039B59
:1020800050E0EB1103F0060343F0F00313612F4916
:102090000A9A33462046FFF75CFE48B1236C236C56
:1020A000042B4FF0000307D184F83C30012587E76B
:1020B0002368EDB21D61D4E784F83C3003257FE747
:1020C00032460A992046FFF7B2FE40B1236C042B3A
:1020D000F4D12268136843F400731360E6E7616A81
:1020E0002068228D4B1C63620B780361638D013B7A
:1020F0009BB263854769531E9BB27F0723850AD530
:102100004BB18B1C63624B780361638D013B9BB2C7
:10211000023A6385228532460A992046FFF7ADFED2
:102120000028D3D1238D002BCAD121680A6842F43C
:1021300000720A60202284F83D2084F83C3084F844
:102140003E303DE7020010000200010008000100DF
:102150002DE9F341044618B9012002B0BDE8F08131
:102160000368DD0710D42368980758D423681A073A
:1021700000F19A8023685B0700F1B880A269002A09
:1021800040F019810020E8E7A64B9A6802F00C02A3
:10219000042A07D09A6802F00C02082A0AD15B6868
:1021A000590207D59F4B1B689A03DCD56368002B47
:1021B000D9D1D1E763689B4DB3F5803F11D12B682E
:1021C00043F480332B60FEF72DFF964D06462B68B7
:1021D0009B03C8D4FEF726FF801B6428F7D9032091
:1021E000BBE7B3F5A02F04D12B6843F480232B6009
:1021F000E5E72A6822F480322A602A6822F48022E5
:102200002A60002BDFD1FEF70DFF06462B689F03E7
:10221000A9D5FEF707FF801B6428F7D9DFE7814BBC
:102220009A6812F00C0F07D09A6802F00C02082A84
:1022300011D15B685E020ED47A4B1A68950702D5FD
:10224000E268012A88D11A68216922F0F80242EA7C
:10225000C1021A608AE7E268734BB2B101221A60C8
:10226000FEF7E0FE6F4D06462B68980707D52B68F2
:10227000226923F0F80343EAC2032B6076E7FEF7F6
:10228000D1FE801B0228EFD9A9E71A60FEF7CAFE2B
:10229000644D06462B6899077FF568AFFEF7C2FECE
:1022A000801B0228F6D99AE76269604B7AB1012255
:1022B0001A60FEF7B7FE5B4D06466B6F9F073FF552
:1022C00059AFFEF7AFFE801B0228F6D987E71A60E8
:1022D000FEF7A8FE534D06466B6F98077FF54AAF91
:1022E000FEF7A0FE801B0228F6D978E74D4B1A6C4A
:1022F00012F0805228D101921A6C42F080521A6476
:102300001B6C03F080530193019B0126484D2B6801
:10231000D9051BD5A368434D012B27D12B6F43F063
:1023200001032B67FEF77EFE3E4D074641F28838DB
:102330002B6F9B0739D5002E3FF420AF394A136C21
:1023400023F08053136419E70026DFE72B6843F47A
:1023500080732B60FEF766FE07462B68DA05D9D43A
:10236000FEF760FEC01B0228F7D938E7052B04D121
:102370002B6F43F004032B67D0E72A6F22F0010292
:102380002A672A6F22F004022A67002BCAD1FEF7BF
:1023900049FE41F2883807462B6F9807CBD5FEF7E8
:1023A00041FEC01B4045F7D919E7FEF73BFEC01BB5
:1023B0004045BDD913E71B4DAB6803F00C03082B58
:1023C0003FF4CAAE1B4E0023022A336034D1FEF71D
:1023D00029FE07462B6899011ED4226AE36913433C
:1023E000626A43EA8213E26A43EA0263A26A0D4C1C
:1023F0005208013A43EA02436B6001233360FEF75F
:1024000011FE054623689A013FF5BCAEFEF70AFEB1
:10241000401B0228F6D9E2E6FEF704FEC01B0228A4
:10242000D8D9DCE60038024000004742800E47421F
:102430000070004060004742FEF7F4FD04462B6840
:102440009B017FF59FAEFEF7EDFD001B0228F6D93C
:10245000C5E600BF134908B58B6803F00C03042BD5
:1024600003D0082B03D0104808BD104808BD4A68A7
:102470004B68496813F4800314BF0C480A48C1F341
:10248000881118BF002302F03F02A1FB0001FEF7F4
:10249000F7FB044B5B68C3F3014301335B00B0FB04
:1024A000F3F008BD003802400024F40000127A0066
:1024B0002DE9F0410D46044610B90120BDE8F08138
:1024C000444B1A6802F00F028A4228D321688F0712
:1024D0002DD4C80740D43F4B1A6802F00F02954232
:1024E00066D3226851076CD4130707D53A4A21698D
:1024F000936823F4604343EAC1039360FFF7AAFFA4
:10250000354B364A9B68C3F30313D35CD840344B36
:1025100018600020FEF73CFD0020BDE8F081CAB243
:102520001A701B6803F00F039942C6D1CEE72A4BFD
:1025300011F0040F1EBF9A6842F4E0529A600E0731
:1025400042BF9A6842F460429A609A68A06822F09A
:10255000F00202439A60BCE762681F4B012A1DD15A
:102560001B6813F4003FA8D01B4EB36823F003038D
:102570001343B360FEF756FD41F288380746B3684F
:10258000626803F00C03B3EB820FA4D0FEF74AFDA0
:10259000C01B4045F3D90320BDE8F081911E0129FD
:1025A0001B6802D813F0007FDDE713F0020FDAE7B3
:1025B000EAB21A701B6803F00F039D427FF47DAFEF
:1025C0008FE70549E0688B6823F4E05303438B6091
:1025D0008AE700BF003C0240003802400AD80008E9
:1025E00010000020014B1868704700BF1000002049
:1025F000044B054A9B68C3F38223D35C034A1068EB
:10260000D8407047003802401AD800081000002057
:102610002DE9F04389B005460E46FEF703FD002381
:102620008146082128680093019301F078F9044657
:1026300040BB296D2868090401F07CFA044608BBF8
:102640004FF0FF33029308230393302304930223B4
:1026500005930690012302A92868079301F04CF91D
:10266000286801F098FA044660B9074640F22A4803
:102670002868436B13EA080F436B07D0190718D576
:1026800008248463204609B0BDE8F0839B0207D587
:1026900001F074F808AB03EB8703013743F8200C13
:1026A000FEF7C0FCA0EB09000130E1D14FF000447F
:1026B000E8E7436B9A0701D50224E2E7436B9B06E8
:1026C00001D52024DDE740F2FF538363009B1BBA52
:1026D0007360019B1BBA3360D4E72DE9F04F87B0DC
:1026E00004460D4691469846109EFEF79BFC074611
:1026F0002DB9A36B43F00063A363012010E094F8AD
:102700003400C0B2012840F0C380E26D09EB080339
:1027100000219342A16306D9A36B43F00073A36326
:1027200007B0BDE8F08F032384F834302068636C71
:10273000C162012B4FF4007118BF4FEA492901F023
:10274000EEF850B1236840F2FF529A63A36B18432E
:10275000A063012084F83400E2E74FF0FF330093D8
:102760004FEA48230193049090234FF0010A4FF061
:10277000020B694620680293CDF80CB0CDF814A086
:1027800001F0BAF8D0450AD9C4F830B049462068FB
:1027900001F0F5F80028D5D140F22A3A27E0C4F834
:1027A00030A04946206801F0D2F8F3E71A040BD5AF
:1027B000A5F1040905F11C0B206800F0DFFF49F8C2
:1027C000040FD945F8D1203566B9236840F2FF528D
:1027D0009A63A36B43F00043A363012384F834306E
:1027E00003209DE7FEF71EFCC01B8642EDD9206842
:1027F000436B13EA0A0F436BD8D0DB0509D5B8F158
:10280000010F06D9636C032B03D001F001F90028F6
:1028100098D123685A6B100707D540F2FF529A638C
:10282000A36B43F00803A36393E75A6B910706D5A4
:1028300040F2FF529A63A36B43F00203F3E75A6B33
:10284000920618D540F2FF529A63A36B43F020031F
:10285000E9E700F093FF45F8040B3EB9236840F226
:10286000FF529A63A36B43F00043DCE7FEF7DAFB09
:10287000C01B8642F2D92068436B13F40013E8D1E1
:1028800040F2FF528263012284F83420184647E761
:10289000A36B43F000532FE72DE9F04786B00446C1
:1028A0000D4691461E460E9FFEF7BCFB80462DB995
:1028B000A36B43F00063A363012010E094F834009D
:1028C000C0B2012840F09F80E26D09EB06030021B1
:1028D0009342A16306D9A36B43F00073A36306B0D0
:1028E000BDE8F087032384F834302068636CC1624C
:1028F000012B4FF4007118BF4FEA492901F00FF87E
:1029000050B1236840F2FF529A63A36B1843A0634F
:10291000012084F83400E2E7012E35D92023236317
:102920004946206801F05BF80028EAD14FF0FF33F8
:102930000093730201939023029303900490012368
:1029400069462068059300F0D7FF40F21A3A2068E4
:10295000436B13EA0A0F436B1DD0DD0508D5012E2A
:1029600006D9636C032B03D001F052F80028C8D1BC
:1029700023685A6B11072DD540F2FF529A63A36B5F
:1029800043F00803A363C3E7102323634946206889
:1029900001F00DF8C8E75B0409D5A9462035494682
:1029A000206809F1040900F0ECFE4D45F7D157B954
:1029B000236840F2FF529A63A36BA363012384F858
:1029C000343003208BE7FEF72DFBA0EB0800874295
:1029D000BDD8EDE75A6B920706D540F2FF529A63D5
:1029E000A36B43F00203CDE7586B40F2FF5210F0A7
:1029F00010009A6303D0A36B43F01003C2E70123D6
:102A000084F834306BE7A36B43F0005353E770470F
:102A1000436E9A0F0A70C3F383624A70C3F3016274
:102A20008A70C3F30742CA70C3F30722DBB20A718C
:102A30004B71836E1A0E1201CA80CA8830B592B2E9
:102A4000C3F303542243CA80C3F303420A72C3F39D
:102A50000722D4094C72C2F380148C72C2F3401462
:102A6000CC72C2F300140C7300244C73446C002C21
:102A700040F08380920202F440620A610A699B007E
:102A800003F47F7313430B61C26E0B6943EA9273C5
:102A90000B61C2F3C2630B75C2F302634B75C2F3E1
:102AA00042538B75C2F38243CB75D30B03F00603FD
:102AB0000B760C7EC2F30723C2F3C03222430A76A0
:102AC0000A690C7E01320234A24042650D7A01246B
:102AD000AC408465640A6243C2654FF400720266CA
:102AE000C3F380125B0003F07E034A768B76C36EDD
:102AF0008A7EC3F3C014224303F07F038A76CB7629
:102B0000036FDA0F0A77C3F341724A77C3F3826225
:102B10008A779A0D02F00C02CA77CA7FC3F38150FC
:102B20000243CA77C3F3405281F820200020C3F348
:102B3000004281F8210081F82220C3F3C03281F8DD
:102B40002320C3F3803281F82420C3F3403281F87C
:102B50002520C3F3003281F82620C3F3812281F8B7
:102B60002720C3F30122C3F3460381F8282081F80C
:102B70002930012381F82A3030BD012C1AD11B04E1
:102B800003F47C130B61C36E0A691C0E42EA042233
:102B90000A610C69C3F3074222430A610A6992027F
:102BA00002F580624265C2654FF40072C3F30723E9
:102BB000826594E7036840F2FF529A63836B43F0A7
:102BC00080538363012380F83430184630BD000001
:102BD000F0B599B0002576230C930A950B950AABB6
:102BE000044693E807008DE807006F4E07950895A7
:102BF000099507AB0ECB206800F0A4FD01273560D6
:102C0000206800F0C3FD37600220FEF711FA20684B
:102C1000069500F02FFF064668B9206800F052FFC5
:102C200080B3A6644FF6FF75069B5A1CAB42069212
:102C300008D14FF08076012084F83400A16B0E4358
:102C4000A66381E00021206800F074FF014610B106
:102C50004FF08056EFE7206800F084FF014600281F
:102C6000F6D1206800F0ADFD0028DDDA00236364B2
:102C700020680123ADF8163000F08CFD10BB4FF03A
:102C800080656BE0A7644FF6FF75069B5A1CAB424C
:102C90000692CED00021206800F04CFF06460028A6
:102CA000C9D14FF08041206800F05CFF0646002843
:102CB000C1D10146206800F084FDC30FE5D0420079
:102CC000D4D5D4E7636C032B1AD0206800F07BFFC7
:102CD0000546002842D10146206800F072FD04211B
:102CE0006067206800F06DFD0821A067206800F093
:102CF00068FD0C21E067206800F063FDC4F88000E7
:102D0000636C032B22D1636C032B2ED1042120682A
:102D100000F057FD000DE0640DA92046FFF778FE96
:102D2000226D20681204002300F08CFE0546A8B92D
:102D300004F1100393E807008DE80700231D0ECB74
:102D4000206800F0FFFC284619B0F0BD0DF1160117
:102D5000206800F063FF05460028D4D0012084F8E5
:102D60003400A36B1D43A563EEE7BDF81610216583
:102D70002068090400F03CFF05460028EED101461A
:102D8000206800F01EFD04216066206800F019FD37
:102D90000821A066206800F014FD0C21E066206880
:102DA00000F00FFD2067B1E7A080254210B5044672
:102DB000A0B190F8343003F0FF0213B9027704F0A9
:102DC00061FC032384F834302046FFF701FF002024
:102DD0000123A063206384F8343010BD012010BDAE
:102DE000436C0B60836C4B60C36C8B60036DCB607A
:102DF000436D0B61836D4B61C36D8B61036ECB6162
:102E00000020704770B5032380F83430436C032BE7
:102E10008AB004460E4602D0B1F5805F03D1A36BA1
:102E200043F0805356E0B1F5006F2DD100210068CA
:102E30000491059100F0C5FC800120D404A920462E
:102E4000FFF7E6FB60B9059B59031AD5216D206891
:102E5000090400F06FFE18B90221206800F062FF3B
:102E6000A36B1843A063A56B002D35D0236840F2F7
:102E7000FF5201209A6384F834000AB070BD3046D6
:102E8000EEE74FF08060EBE709BB00680491059125
:102E900000F097FC820114D404A92046FFF7B8FB88
:102EA00060B9059BDB030FD5216D2068090400F094
:102EB00041FE18B90146206800F034FFA16B0843B9
:102EC000D0E74FF40060F9E74FF08060F6E7836BDE
:102ED00043F00063A363C6E763680493A3680593A4
:102EE000E368069363690893A369099307960AAB9D
:102EF00013E907008DE8070004AB0ECB206800F053
:102F000021FC012384F834302846B6E7016D10B562
:102F100009040446006800F0D5FE014628B920687F
:102F200000F04FFCC0F3432010BDA36B1943A16315
:102F30000020F7E738B5846B236C0BB100232364C2
:102F4000E56BC5B92046FFF7E1FF05380123C0B2A4
:102F50009842A56384F834300DD8206800F058FDFD
:102F6000A36B1843A063A36B204613B102F07DFA54
:102F700038BDFFF74CFD38BD38B5846BE36B0BB142
:102F80000023E363256CC5B92046FFF7BFFF053872
:102F90000123C0B29842A56384F834300DD820686C
:102FA00000F036FDA36B1843A063A36B204613B15A
:102FB00002F05BFA38BDFFF72AFD38BD70B5044654
:102FC0000068436BDA054FD54FF480738363C36B9E
:102FD00023F44E7323F00203C363236B13F0080F33
:102FE000236B1ED09B0702D4236B9E0608D500F0EE
:102FF0000FFD28B1A36B1843A0632046FFF707FD20
:10300000236840F2FF529A63012384F83430236B23
:10301000DD07204602D4236B9C0722D502F02FFA4D
:1030200070BD190640F1A580236B9A0608D500F003
:10303000EFFC28B1A36B1843A0632046FFF7E7FC21
:10304000236BDB0700F19580236B9E0700F19180D5
:103050002268D36A23F00803D362012384F8343052
:10306000204602F007FA70BD436B5D0410D5256A57
:103070004FF48043836305F1200629462068043518
:1030800000F07FFBAE42F8D1236A2033236270BD8B
:10309000436B190410D5A56A4FF400432E1F8363B8
:1030A0001C35206800F06AFB46F8040FB542F8D1E1
:1030B000A36A2033A36270BD426B40F23A231A42E6
:1030C00057D0436B9A0742BFA36B43F00203A3633D
:1030D000436B1B0742BFA36B43F00803A363436B1F
:1030E0009E0642BFA36B43F02003A363436BDD0640
:1030F00042BFA36B43F01003A363436B990542BF28
:10310000A36B43F00803A36340F2FF738363C36BB5
:1031100023F44E7323F00203C363236B1A061FD5F7
:10312000206C48B1134B0365FEF739FC08B3206CE3
:10313000BDE87040FFF7FEBEE06B48B10E4B036583
:10314000FEF72DFCA8B1E06BBDE87040FFF714BF9F
:103150000123A06384F83430204602F086F970BD64
:10316000236B1B0705D5012384F834302046FFF775
:103170004EFC70BD352F0008792F000870B50E4643
:103180001546044610B390F8493003F0FF021BB90E
:1031900080F8482002F06CFA04F10801206800F081
:1031A00023FAA2682068314600F04AFA236BA2682D
:1031B0006068294600F062FAA168226852F821305E
:1031C00043F0010342F82130002070BD012070BDA2
:1031D0000368DA6842F00102DA601A6842F001021C
:1031E0001A600020704790F83830012B70B54FF00E
:1031F00002031CD080F839300368012280F838209F
:103200009A6822F47F4222F077029A600A68402A84
:1032100079D019D8102A00F093800AD8002A00F03B
:103220008980012380F83930002380F8383018462F
:1032300070BD202A00F08A80302AF2D19A6822F0EC
:10324000700242F0370236E0702A36D01BD8502A7E
:1032500042D0602AE5D11C6A4D68CE6824F0100483
:103260001C6299691A6A21F4704122F0A00242EAB4
:10327000051241EA063199611A629A6822F07002D9
:1032800042F0670217E0B2F5805F11D0B2F5005F3F
:10329000C7D18A684D689C68C9682A4324F47F4472
:1032A00042EA012222439A609A6842F4804202E094
:1032B0009A6822F007029A60B3E78A684D689C68B2
:1032C000C9682A4324F47F4442EA012222439A60D7
:1032D0009A6842F07702EEE74C68CE68196A1D6A78
:1032E00025F001051D629A6921F00A0122F0F00221
:1032F00042EA061221439A6119629A6822F070022A
:1033000042F05702D7E74C68CE68196A1D6A25F06B
:1033100001051D629A6921F00A0122F0F00242EAD9
:10332000061221439A6119629A6822F0700242F0F3
:103330004702C0E79A6822F0700242F00702BAE73B
:103340009A6822F0700242F01702B4E79A6822F0FD
:10335000700242F02702AEE770477047704770472F
:1033600003681A69910710B504460ED5DA6892070A
:103370000BD56FF002021A619B6901229B0702764E
:1033800077D0FFF7EAFF0023237623681A695007F6
:1033900010D5DA6851070DD56FF004021A619B69E8
:1033A000022213F4407F2276204668D0FFF7D5FF33
:1033B0000023237623681A6912070FD5DA681007ED
:1033C0000CD56FF008021A61DB6904229907227696
:1033D00020465AD0FFF7C1FF0023237623681A69DD
:1033E000D20610D5DA68D0060DD56FF010021A613A
:1033F000DB69082213F4407F227620464BD0FFF78A
:10340000ACFF0023237623681A69D10708D5DA6850
:10341000D20705D56FF001021A61204602F086FA44
:1034200023681A69100608D5DA68110605D56FF009
:1034300080021A61204600F0D6F823681A69520605
:1034400008D5DA68500605D56FF040021A612046AB
:10345000FFF785FF23681A69910622D5DA6892067C
:103460001FD56FF0200220461A61BDE8104000F021
:10347000B9B8FFF771FF2046FFF770FF83E7FFF74A
:103480006BFF2046FFF76AFF92E7FFF765FF2046D4
:10349000FFF764FFA0E7FFF75FFF2046FFF75EFF3F
:1034A000AFE710BD2E4A0368904212D0B0F1804FB2
:1034B0000FD0A2F57C4290420BD002F58062904280
:1034C00007D002F58062904203D002F57842904224
:1034D0001DD14A6823F070031343214A904204D15E
:1034E000CA6823F44073134328E0B0F1804FF7D04B
:1034F0001C4A9042F4D002F580629042F0D002F56E
:1035000080629042ECD002F578429042E8D0164AB0
:103510009042E5D002F580629042E1D002F58062EF
:103520009042DDD0A2F598329042D9D002F5806267
:103530009042D5D002F580629042D1D003608B6872
:10354000C3620B688362064B984206D003F5806322
:10355000984202D00123436170470B690363F9E786
:1035600000000140000400400040014010B5044646
:10357000A0B190F8393003F0FF021BB980F8382071
:1035800004F074FA022384F839302068211DFFF713
:1035900089FF012384F83930002010BD012010BDBF
:1035A00090F83830012B10B54FF0020318D080F896
:1035B000393003680C685A68496822F070025A6012
:1035C0005A6822435A609A6822F080029A609A6888
:1035D0000A439A60012380F83930002380F838309C
:1035E000184610BD7047704770B50C688D6850F86C
:1035F00024304A68114E1E4045EA0203CA6813434C
:103600000A6913434A6913438A691343CA69134316
:103610000A6A13434A6A13438A6A1343CA6A134302
:10362000CA6B13430A6B13433343082D08BF43F09F
:10363000400340F82430002070BD00BF8000F0FF40
:1036400000EB82020B6888690343486843EA001371
:10365000886830B543EA00230D69C8684969546831
:1036600043EA0043013D43EA0553023904F0404474
:1036700043EA016323435360002030BDB3F5804F1C
:1036800030B514D150F822300A4C8D691C400B68BB
:103690002B434D6843EA05138D68C96843EA052347
:1036A00043EA0143234340F82230002030BD6FF04D
:1036B0007043F8E70000F0CF114B4FF4FA521B684B
:1036C000B3FBF2F241F28833534313F1FF3314D3C7
:1036D000426B12F0450FF8D0436B5B0703D5042310
:1036E000836318467047436B13F0010301D0012335
:1036F000F6E740F2FF528263F3E74FF00043F0E752
:10370000100000200E4B4FF4FA521B68B3FBF2F28C
:1037100041F28833534313F1FF330ED3426B12F05F
:10372000450FF8D0436B13F0040315BF042340F298
:10373000FF5283638263184670474FF00040704722
:103740001000002084B010B503AC84E80E0004998A
:10375000039B42680B4305990B4306990B4307995A
:103760000B430899BDE8104022F4FD420B4322F0C0
:103770007F021343436004B000207047D0F88000FC
:1037800070470B68C0F88030002070470323036047
:1037900000207047006800F0030070470B6810B508
:1037A00083608C684B68C2682343CC6809692343F3
:1037B00022F47F620B4322F00F021343C360002008
:1037C00010BD82B014300144002301930191019B8C
:1037D000186802B070470000454B10B51B684FF4E5
:1037E000FA54B3FBF4F35A43002A4AD0436B13F064
:1037F000450F02F1FF32F7D0436B5C0703D504237A
:103800008363184610BD436B13F0010301D00123FD
:10381000F6E70269D2B2914236D140F2FF52194620
:103820008263FFF7CEFF334B0340002BE9D0002823
:103830002CDB42002DD484002DD4C1002DD40201F4
:103840002ED444012FD4C10130D4020231D4440219
:1038500032D4810233D4C20234D4440335D4810338
:1038600036D4C20337D4040438D4410439D4820492
:103870003AD410F0080F14BF4FF400034FF4803314
:10388000BFE74FF00043BCE70123BAE74FF00073F6
:10389000B7E74023B5E78023B3E74FF48073B0E781
:1038A0004FF40073ADE74FF48063AAE74FF4006371
:1038B000A7E74FF48053A4E74FF40053A1E74FF478
:1038C00080439EE74FF400439BE74FF4003398E7B3
:1038D0004FF4802395E74FF4002392E74FF48013D1
:1038E0008FE74FF400138CE74FF4800389E700BFA4
:1038F0001000002008E0FFFD0B6810B543624B6824
:103900008362CC688B68C26A23430C69496923438C
:103910000B4322F0F7021343C362002010BD30B501
:1039200087B040230393002305460191102404939C
:1039300001A94FF4806305930294FFF72FFF41F232
:10394000883221462846FFF747FF07B030BD30B523
:1039500087B040230393002305460191112404936B
:1039600001A94FF4806305930294FFF717FF41F21A
:10397000883221462846FFF72FFF07B030BD30B50B
:1039800087B040230393002305460191122404933A
:1039900001A94FF4806305930294FFF7FFFE41F203
:1039A000883221462846FFF717FF07B030BD30B5F3
:1039B00087B0402303930023054601911824049304
:1039C00001A94FF4806305930294FFF7E7FE41F2EB
:1039D000883221462846FFF7FFFE07B030BD30B5DC
:1039E00087B04023039300230546019119240493D3
:1039F00001A94FF4806305930294FFF7CFFE41F2D3
:103A0000883221462846FFF7E7FE07B030BD0000A8
:103A100030B587B00023054601930C24402204935F
:103A200001A94FF48063039205930294FFF7B6FE59
:103A3000034A21462846FFF7CFFE07B030BD00BF3E
:103A400000E1F50530B587B0402303930023054618
:103A50000724049301A94FF4806301920593029413
:103A6000FFF79CFE41F2883221462846FFF7B4FE5C
:103A700007B030BD10B586B00023019302930393C5
:103A8000049301A94FF4806305930446FFF786FE73
:103A90000B4B4FF4FA521B68B3FBF2F241F288333E
:103AA000534313F1FF3308D3626B1206F9D540F28A
:103AB000FF53A363002006B010BD4FF00040FAE7AB
:103AC0001000002010B586B04FF4D5730193082381
:103AD0000293402303930023049301A94FF48063CE
:103AE00005930446FFF75AFE114B4FF4FA521B6838
:103AF000B3FBF2F241F28833534313F1FF3314D393
:103B0000626B12F0450FF8D0626B12F0040204D021
:103B10004023A363042006B010BD606B10F040008A
:103B2000F9D04023A3631046F5E74FF00040F2E7D9
:103B30001000002030B587B04023039300230546D2
:103B400001913724049301A94FF4806305930294F3
:103B5000FFF724FE41F2883221462846FFF73CFE5B
:103B600007B030BD10B586B02923029341F0004163
:103B70004023039341F480110023044601910493F0
:103B800001A94FF480630593FFF708FE2046FFF775
:103B9000B9FD06B010BD30B587B0002305460193CE
:103BA00033244022049301A94FF4806303920593C8
:103BB0000294FFF7F3FD41F2883221462846FFF7D1
:103BC0000BFE07B030BD10B586B0002302220446BC
:103BD000019302920493C0224FF4806301A90392DF
:103BE0000593FFF7DBFD2046FFF766FD06B010BD2D
:103BF00010B586B009230293C02303930023044623
:103C00000191049301A94FF480630593FFF7C6FD6A
:103C10002046FFF751FD06B010BD000030B587B05B
:103C20000023032201930292049340224FF4806305
:103C30000D4601A9039205930446FFF7AFFD204B03
:103C40004FF4FA521B68B3FBF2F241F2883353434C
:103C500013F1FF332BD3626B12F0450FF8D0636B77
:103C60005A0703D50420A06307B030BD616B11F083
:103C7000010101D00120F6E72369DBB2032B19D142
:103C800040F2FF53A3632046FFF79BFD10F460430F
:103C900003D1000C28801846E6E743040CD410F446
:103CA000004F14BF4FF480504FF48030DCE74FF0EA
:103CB0000040D9E70120D7E74FF40050D4E700BF18
:103CC0001000002030B587B0402303930023054641
:103CD00001910D24049301A94FF48063059302948C
:103CE000FFF75CFD41F2883221462846FFF774FD5C
:103CF00007B030BD30B587B040230393002305469D
:103D000001910624049301A94FF480630593029462
:103D1000FFF744FD41F2883221462846FFF75CFD5B
:103D200007B030BDFFF7E6BF034B1A1803EB800363
:103D3000107A5B685B681847CC060020064B1A5C5B
:103D400042B901221A541A1803EB8003107A5B68F7
:103D50001B68184700207047CC06002030B4054C83
:103D6000251804EB800460688468287AA44630BC77
:103D7000604700BFCC06002030B4054C251804EB8A
:103D800080046068C468287AA44630BC604700BFDD
:103D9000CC060020054B10B41C1803EB8003207ADE
:103DA0005B685DF8044B1B69184700BFCC06002018
:103DB00042884378007843EA022340EA03207047B0
:103DC0000B0A017043700B0C090E8370C1707047B1
:103DD000024400F8011B9042FBD17047154BF0B52F
:103DE00000252A461C461E68A6B10768BE4212D1AD
:103DF0005F688668B7420ED19F684669B7420AD1AC
:103E0000B1B904EB02129389B3F5807F14BF00208F
:103E10001020F0BD01250132022A03F11003E2D186
:103E20000DB10020F0BD02290CBF00201220F0BD12
:103E30001020F0BDA80600201C4AF0B5056800233C
:103E400016461468AC4207D157688468A74203D16C
:103E500097684469A7421DD00133022B02F110027A
:103E6000EFD1336813B13369EBB901231C01321967
:103E7000355184684069906000205460908179B920
:103E800006EB03129289013292B206EB0316581C1C
:103E9000B281F0BD0029F3D006EB0312928912B96A
:103EA0004FF48072F1E70020F0BD00BFA8060020AB
:103EB000013801280ED8094A0301D118898921F453
:103EC000807080B208B1481E80B2D118888118B9BC
:103ED000D05070470220704700207047A80600208D
:103EE00043690239023B99423DBF4389806A01FB25
:103EF000030000207047C36A02680433490A5289EC
:103F0000B1FBF2F1186830B1814202D3091A0833CB
:103F1000F8E7586808447047026810B552B1114676
:103F20000B4611F8014B202C0CD93A2CF8D1511C1E
:103F30008B4202D04FF0FF3010BD1278302AF9D1F9
:103F400001330360002010BD38B50D46044618B992
:103F500000232B60092038BD0368002BF8D01A78A5
:103F6000002AF5D0D98882889142F1D15878FFF79C
:103F7000DBFE10F00100EBD123682B6038BD013867
:103F80000A4411F8013B00F8013F9142F9D1704712
:103F9000CA7E8B7E032843EA022301BF487D0A7D47
:103FA00042EA002243EA024318467047C2F307235D
:103FB0008A76CB760378032B01BF120C0A75120A9E
:103FC0004A757047F8B5C56A00F130070446012309
:103FD0002A4639464078FFF7CFFEA0B9236AA26986
:103FE000E070EB1A934201D30020F8BDA678012EB1
:103FF000FAD9A36960781D442A4601233946FFF7A0
:10400000BBFE013EF3E70120F8BDC3780BB1FFF71B
:10401000D9BF18467047F8B50446FFF7F6FF0546C6
:10402000002842D12378032B37D12779012F34D1AF
:1040300004F1300601464FF400723046FFF7C8FE27
:10404000552384F82E32AA2384F82F32522341229A
:10405000722184F8303084F83130612384F83230B2
:1040600084F8332084F8162284F8173284F8141266
:1040700084F8151204F506702169FFF7A1FEE168C6
:1040800004F50770FFF79CFEE26960780132E26296
:104090003B463146FFF770FE2571002211466078DD
:1040A000FFF778FE003018BF0120F8BDC36A8B42CD
:1040B00070B506460D4612D0FFF7A7FF044660B95B
:1040C0002A46012306F130017078FFF747FE0028E9
:1040D0001CBF4FF0FF350124F562204670BD00245F
:1040E000FBE70000002310B5C3704FF0FF33C3623D
:1040F0000446FFF7DBFF30BB94F82F2294F82E32F2
:1041000043EA02234AF6552293421ED194F83030F6
:10411000E92B05D0236B104A03F0FF13934216D10D
:1041200004F16600FFF744FE0C4B20F07F409842FC
:104130000FD004F18200FFF73BFE094B984214BFF9
:104140000220002010BD042010BD032010BD02205D
:1041500010BD002010BD00BFEB0090004641540090
:10416000464154332DE9F043002385B00B600F46E0
:104170001546FFF7D1FE061EC0F24081A34B53F84F
:104180002640002C00F03C813C60237805F0FE05C1
:1041900073B16078FFF7C8FDC10709D4002D00F0A6
:1041A000318110F0040000D00A2005B0BDE8F08392
:1041B0000023F0B223706070FFF7C0FDC20700F16A
:1041C00023810DB14307EFD400212046FFF78AFF7A
:1041D000022840F0F78004F5FB75002115F8040C67
:1041E00010B12846FFF7E4FD4DF821000131042904
:1041F00005F11005F2D100255DF82560002E00F0D4
:10420000D88031462046FFF76DFF012800F2D280AA
:1042100094F83C2094F83B3043EA0223B3F5007F46
:1042200040F0D48094F8473094F8465055EA03257E
:1042300004D104F15400FFF7BBFD054694F840900B
:10424000A56109F1FF33012B84F8029000F2BE80D2
:1042500094F83D70BBB26381002B00F0B7807B1EE9
:104260003B4240F0B38094F8423094F8418048EAF1
:10427000032818F00F0FA4F8088040F0A78094F8E6
:10428000441094F8430050EA012003D104F1500097
:10429000FFF78EFD94F83F3094F83E2052EA032257
:1042A00000F0948005FB09F302EB181E9E44704554
:1042B000C0F08C80A0EB0E01B1FBF7F1002900F0FB
:1042C00085804FF6F570814200F2848040F6F577E4
:1042D000B9428CBF022701270231324406EB0E009F
:1042E000032F6161E6612262A06275D194F85B20C0
:1042F00094F85A3053EA022368D1B8F1000F65D11F
:1043000004F15C00FFF754FD6062890001F2FF11C7
:10431000B5EB512F5AD34FF0FF332361E360032FE6
:104320004FF0800323712FD194F8612094F860300E
:1043300043EA0223012B27D1711C2046FFF7B6FE6A
:1043400010BB94F82F2294F82E32207143EA0223F6
:104350004AF65522934217D104F13000FFF728FDA9
:104360002B4B984210D104F50570FFF721FD294B26
:10437000984209D104F50670FFF71AFD206104F593
:104380000770FFF715FDE060234A2770138801339B
:104390009BB21380E380214B1A68944204BF002231
:1043A0001A601A6994424FF000007FF4FEAE186163
:1043B000FBE603200135042D7FF41EAF042805D150
:1043C0000120F2E60428FBD0012801D90D20ECE6FB
:1043D00000261DE703277FE7B8F1000FF6D0022F74
:1043E0004FEA410018BF4018134418BF01F0010103
:1043F00063620CBF014601EB500187E70B20D4E656
:104400000C20D2E62846D0E60320CEE6A406002003
:104410005252614172724161C8060020A806002014
:1044200001292DE9F04705460C46174672D9436924
:1044300099426FD20378022B3FD0032B50D0012B2F
:1044400068D101EB5108016A01EB5821FFF72EFEFC
:10445000064638BB05F1300908F1010AC8F308081F
:1044600014F001041FBF19F8083003F00F023B01DC
:1044700003F0F00314BF1343FBB209F80830296AB4
:104480000123EB7001EB5A212846FFF70FFE064689
:1044900040B9CAF3080A44B1C7F3071709F80A700C
:1044A0000123EB703046BDE8F08719F80A30C7F3F6
:1044B000032723F00F031F43F0E7016A01EB1421E8
:1044C000FFF7F4FD06460028ECD1640005F1300347
:1044D00004F4FF741A191F55C7F307275770DFE755
:1044E000016A01EBD411FFF7E1FD06460028D9D19E
:1044F000A40005F1300304F4FE741C442046FFF7C9
:1045000057FC27F0704700F0704139432046FFF711
:1045100057FCC5E70226C5E70129F8B505460C4654
:1045200052D9436999424FD20378022B29D0032BE9
:1045300038D0012B48D101EB5106016A01EB56211D
:10454000FFF7B4FD10B14FF0FF30F8BD771C296ABA
:10455000C6F308062E4401EB5721284696F8306032
:10456000FFF7A4FD0028EED1C7F308073D44E30799
:1045700095F8300046EA00204CBF0009C0F30B005C
:10458000F8BD016A01EB1421FFF790FD0028DAD194
:104590006400303504F4FF742B19285D5B7840EA21
:1045A0000320F8BD016A01EBD411FFF77FFD00285D
:1045B000C9D1A40005F1300004F4FE742044FFF7D3
:1045C000F7FB20F07040F8BD0120F8BD2DE9F04167
:1045D000804605680F4671B9EE68F6B16B699E4278
:1045E00028BF012634466B6901349C4218D3012E42
:1045F00015D8002409E02846FFF78EFF012804465D
:1046000037D9431C04D14FF0FF342046BDE8F08178
:104610006B699842F9D33E46E4E70126E2E70224BB
:104620002146D8F80000FFF777FF30B1012820D0ED
:104630000130E8D0B442D6D1DBE74FF0FF3221465B
:104640002846FFF7EDFE90B957B96A692B69EC600F
:10465000023A93420FD92B7943F001032B71D4E72F
:10466000224639462846FFF7DBFE0028EDD0012818
:10467000C9D00124C9E7013B2B61ECE7F8B50D4631
:10468000012D0746114601D80220F8BD0468636970
:104690009D42F9D22AB14FF0FF322046FFF7C0FE0B
:1046A00008BB29463868FFF737FF064608B90020DF
:1046B000F8BD0128E8D0431C14D00022294620462A
:1046C000FFF7AEFE78B962692369911E8B4205D26D
:1046D00001332361237943F0010323719642354668
:1046E000DFD3E4E70120F8BD826838B50023054632
:1046F0000468436192B92378022B01D9636A73B9C4
:1047000023890BB9022038BD636AEB61EB69AA61AA
:10471000002BF7D030342C62002038BD134661895D
:104720001A4661B911462868FFF7F6FE431C024697
:104730000BD00128E6D963699842F3D3E2E7194622
:104740002046FFF7CDFBE861E0E7012038BDC369F3
:104750002DE9F04705460F46ABB1426902F120084A
:10476000B8F5001F0FD2C8F308090468B9F1000FAB
:104770004FD181690133C36141B92389B3EB581F1C
:1047800047D80023EB610420BDE8F0876389013B33
:1047900013EA58233DD12046FFF7BEFE0128064606
:1047A00002D80220BDE8F087421C02D10120BDE8FA
:1047B000F0876369984226D3002FE2D0A969284682
:1047C000FFF704FF0646002837D00128E9D0431C34
:1047D000ECD02046FFF719FC07460028E6D1014639
:1047E0004FF4007204F13000FFF7F2FA3146204630
:1047F000FFF776FB4FF0010AE06263899F4210D316
:10480000E36ADF1BE762AE6131462046FFF768FBD3
:10481000E86130344C44C5F814802C620020BDE8B7
:10482000F08784F803A02046FFF7CCFB0028BDD119
:10483000E36A01330137E362DFE70720BDE8F08771
:104840002DE9F843076804460B782F2B0D4601F13C
:104850000101F9D05C2BF7D00023A3602B781F2B2C
:1048600059D9DFF85C8104F124060B22202130465F
:10487000FFF7AEFA002205F1FF3E114608201EF8B0
:10488000013F202B01F101010BD92F2B4BD16818CF
:10489000411B10F801EBBEF12F0FF9D0BEF15C0FF8
:1048A000F6D00D44002A54D094F82420D4F8009077
:1048B000E52A04BF052284F82420212B34BF0423D9
:1048C000002384F82F302046FFF70EFF002845D143
:1048D000E1694846FFF7EAFB00283FD1236A1A78CE
:1048E000002A46D0DA7A02F03F02A271DA7A110782
:1048F0000CD403F10B0E314613F8012B11F801CB48
:104900009E45A2EB0C0227D0002AF5D000212046BC
:10491000FFF71DFFDAE7802384F82F302046BDE83B
:10492000F843FFF7E1BE5C2BB1D02E2B36D090427E
:104930000FD913F0800F18BF803BDFF8889018BFA5
:1049400018F8033019F801CFBCF1000F2BD06345E4
:10495000F8D10620BDE8F883002AD7D194F82F308B
:1049600048B1042829D113F0040F08BF0520BDE881
:10497000F8830420F2E75A071FD4A379DB060AD58F
:1049800063693878C3F3080307F130011944FFF76E
:10499000FFFAA06067E70520BDE8F8830B28D8D0B0
:1049A00008220B206BE7A3F1610CBCF1190F01D8B1
:1049B000203BDBB2B354013261E7BDE8F88300BFAE
:1049C000F0D000086FD1000870B505460668FFF703
:1049D0008BFE044628BBE9693046FFF767FB0446B7
:1049E000F8B92B6A1B78E52B14D1E9693046FFF73B
:1049F0005DFB044660B901462022286AFFF7E8F90A
:104A00000B2205F12401286AFFF7B9FA0123F3709C
:104A1000204670BD002BE8D001212846FFF797FE05
:104A2000D7E7042C08BF0724F2E700007FB5019008
:104A300004A8009140F8041D1646FFF76DFA051E04
:104A40001FDB124951F825405CB1114B1A689442A2
:104A500004BF00221A601A690020944208BF18613E
:104A60002070019808B10023037041F8250030B18F
:104A7000012E08D1002201A96846FFF773FB04B09C
:104A800070BD0B20FBE70020F9E700BFA406002063
:104A9000A80600202DE9F04790B090460191044609
:104AA000002800F0CE8002F03F052A4603A901A8A5
:104AB000FFF758FB074638BB10AE039B46F8303D66
:104AC00001993046FFF7BCFE58B99DF93F30002BE5
:104AD0001EDB15F03E0F14BF012100213046FFF709
:104AE0007DF918F01C0F73D0A0B1042809D1714BC7
:104AF0001A68002A00F0DA801B69002B00F0D680CB
:104B0000122045F0080570B100232360074692E0AB
:104B10000620E6E79DF8163013F0110F63D118F068
:104B2000040F40F0BD8028073CD500F06BFD024625
:104B300001460C980E30FFF743F90C9811461630D9
:104B4000FFF73EF90C9BDDF80C902022DA72DDF8BD
:104B500030A099F800005146FFF71AFA002251469A
:104B600080464846FFF722FA0C9B00221A775A77B4
:104B70009A77DA77039B0121D970B8F1000F11D031
:104B800041463046D3F82C90FFF778FD0028BBD182
:104B900049460398FFF78AFA039A08F1FF33D36076
:104BA0000028B1D1039B2807DB6A636248BF45F048
:104BB000400515F0FE0F0C9BA36214BF01210021DC
:104BC0003046FFF739F9206100283CD102209BE7ED
:104BD000002899D19DF81630DA0663D418F0020F38
:104BE000E0D0DB07DED507208EE72068FFF794FCD6
:104BF0000128014623D9421C50425041A5EB08052B
:104C0000002849D0E16100287FF47EAFC5F3080396
:104C10008BB1DDF80C804046FFF762F90028D5D053
:104C200000EB552222620123314698F80100FFF77C
:104C300095F8002838D1384610B0BDE8F08702203A
:104C4000DCE70927F7E7039EDDF83080307841463E
:104C5000FFF79EF9A06008F11C00FFF7A9F8F388A0
:104C60002660002104F13006E060A380E162257532
:104C700061752162A1614FF400723046FFF7A8F818
:104C8000AB06D8D5E568002DD5D0039BA168B3F855
:104C90000A80A5614FEA4828A845A6D30020B1E7BD
:104CA000082031E704202FE701202DE73046FFF7E9
:104CB0008BFE26E7A80600202DE9F04F9B4685B025
:104CC00000238946CBF8003003A904461746FFF7B6
:104CD0003BF9064658BB667D4EBB237D9A0740F1E3
:104CE000AE80A369FB4228BFDF4304F1300AD7B18D
:104CF000A169C1F30803002B40F08F80039B5B89FF
:104D0000013B13EA5123019324D131B9A068A0B922
:104D100001462046FFF75AFC04E0E36A5BB12046F7
:104D2000FFF7E9F848B9237D43F040032375304687
:104D300005B0BDE8F08FE169EBE7012802D102265A
:104D40006675F4E7431C01D10126F9E7A368E06129
:104D500003B9A06094F91430002B0CDA0398226A8E
:104D6000407801235146FFF707F80028ECD1237D56
:104D700003F07F032375039BE16900931846FFF757
:104D8000AFF80028DBD0019B7D0A03EB000832D08E
:104D9000009B019A5B8900982A449A4288BF019A35
:104DA000407888BF9D1A2B4642464946FEF7E4FFED
:104DB0000028C9D1216AA1EB08018D420AD94FF41C
:104DC000007209EB41215046FFF7D9F8237D03F02B
:104DD0007F0323756D02A369E2682B44A3619A42A5
:104DE0002CBFE260E360DBF800302B44A944CBF831
:104DF00000307F1B7BE7236A98450CD0A269E368EB
:104E00009A4208D200980123424651464078FEF764
:104E1000A5FF002898D1C4F82080A069C0F308003D
:104E2000C0F50075BD4228BF3D462A46494650445C
:104E3000FFF7A5F8237D63F07F032375CBE70726F3
:104E400075E70A2973B504460E4602D10D21FFF716
:104E5000F8FF6368002B14DB5D1C23443C2D1E739C
:104E60000BDD01AB2A4604F10C012068FFF724FF9B
:104E7000019B5D1B18BF4FF0FF35A36865600133D0
:104E8000A36002B070BD4268002A13B5044603DA7D
:104E90004FF0FF3002B010BD00F10C0101AB006813
:104EA000FFF70AFF0028F3D16268019B9A42EFD115
:104EB000A068EFE7F7B501A90446FFF745F80546F6
:104EC00000283AD1237D5A0637D51B060CD5019808
:104ED000226A4078012304F13001FEF74DFF78BBD0
:104EE000237D03F07F03237500F08CFB616A074686
:104EF0000198FFF7DBF80546F8B9A66AF37A43F0A4
:104F00002003F372A26820683146FFF74FF8E1688A
:104F100006F11C00FEF754FF394606F11600FEF7B5
:104F20004FFF0198B5740123F574C370FFF773F850
:104F3000237D23F0400305462375284603B0F0BDCA
:104F40000125FAE713B50446FFF7B4FF48B901A9F4
:104F50002046FEF7F9FF20B92069FEF7A9FF00B946
:104F6000206002B010BD10B594B0002301910293EF
:104F70000393441E14F8011F01A819B9FFF783FF1A
:104F800014B010BDFFF75DFFF4E7000030B50F4B24
:104F90005D7A05F0FF04B5B95D7A5C555D7A03EB87
:104FA00085056860587A184402725A7AD2B2501C49
:104FB000C0B258723A2330324B702F230A708B7074
:104FC000CC70204630BD012030BD00BFCC06002093
:104FD0000022FFF7DBBF000070B54FF0C0452A2468
:104FE0002C700B4C060AC0B226702070100AD2B288
:104FF000207022702B222A700A0A2270C9B21A0A63
:10500000DBB22170227023702C232B7070BD00BF87
:105010000000046038B54FF0C044012525706420BD
:10502000FCF706F828232370C0232370254B262283
:105030001A70C12222701121C522197022703522E6
:105040001A703E221A70C7222270BE221A703622AF
:10505000227048221A703A22227055221A70B12208
:1050600022701F2000221A7018702A202070EF2052
:105070001A701A701A7018702B2020703F201A7046
:105080001A701D70187034202070B720207007200F
:105090001870B62020700A201870822018702720FF
:1050A00018701A7064202170FBF7C2FF2923237047
:1050B0006420FBF7BDFF2C2323700520BDE838409A
:1050C000FBF7B6BF0000046010B50B46144602465D
:1050D000FFF782FF024B220AE4B21A701C7010BD67
:1050E0000000046010B50F4B1B7803F0FD02012A8D
:1050F00004460FD140F23F13EF2200210846FFF78C
:105100006BFF094A210A4FF49633013B117014706A
:10511000FBD110BD022B01D0042BF2D1EF2340F2C2
:105120003F12EAE7080000200000046070B55C1A36
:10513000161A013406FB0444BDF81050B4F5963F2E
:105140009BB292B289B280B228BF4FF49634FFF777
:1051500043FF044B2A0AEDB204B970BD1A70013C3A
:105160001D70F9E7000004602DE9F04F8DB0AF2A03
:1051700088BF01320493BDF85830059388BFD2B27E
:105180002B4B039102EB820213440B93BDF80C30BE
:105190000690099308339BB29DF85C60069F0A93C2
:1051A0000025052D18BF0B9BDDF80C9018BF13F8D8
:1051B00005A0099C06F101030793069B2B449BB2B3
:1051C00008BF4FF0000A07EB060BC84608931AF019
:1051D000010F20D0012E14D1049A08982146FFF720
:1051E00073FF01340A9BA4B29C424FEA5A0AB144AD
:1051F000B044ECD10135062D5F46D2D10DB0BDE8EB
:10520000F08F049B0093079B5A464B44494638460F
:10521000FFF78CFFE5E7049B059A9342E1D0012E4E
:10522000DBD0059B0093079B5A4643444146EEE77B
:105230007FD100082DE9F74F9DF83480BDF830B0DC
:1052400008EB480791469A467F00461E8CB200F153
:10525000270516F8012F62B120B2CDF80480CDF8F1
:1052600000B053464946FFF77FFF3C44AE42A4B22C
:10527000EFD103B0BDE8F08F013800B51149124BF2
:105280004FF0C042032817D8DFE800F016020A10DA
:10529000022008703621117028221A705DF804FB74
:1052A00003200870362111704822F6E704200870A8
:1052B00036211170E822F0E70120087036211170C4
:1052C0008822EAE708000020000004601FB51A48A1
:1052D0001A4B036000230124436083600362C362AE
:1052E000174AC3600223046184618262C36104635C
:1052F0004461FBF7B1FE18B15421124802F048F99D
:10530000052369460C48009401940293FCF70AF8BF
:1053100018B15E210B4802F03BF9002202236946D6
:1053200005488DE80C00FBF7FDFF18B16721054823
:1053300002F02EF904B010BD886700200020014063
:105340000100000F7FD6000870B502681C4B9A421E
:1053500086B0064632D1002503F58C3300955A6C91
:105360001848194C42F480725A645B6C039503F43C
:1053700080730093009B01A9032301930293FCF720
:10538000DBFB124BA56084E828004FF480632361A7
:105390004FF4006363614FF40053A36120464FF460
:1053A0008073E560E36125626562FCF7F9F918B185
:1053B0008F21074802F0ECF8B463A66306B070BD15
:1053C0000020014000000240D0670020106402402D
:1053D0007FD6000807B501208DF807009DF807303B
:1053E00083420BD10748FDF7E1FC38B94FF4006167
:1053F0000448FDF707FD003018BF012003B05DF839
:1054000004FB00BFF8EF002007B5009313460A46DF
:1054100001460448FDF761F9003018BF012003B0D0
:105420005DF804FBF8EF002007B5009313460A4629
:1054300001460448FDF730FA003018BF012003B0E0
:105440005DF804FBF8EF002008B50348FDF75EFDAA
:10545000043818BF012008BDF8EF002001460148BC
:10546000FDF7BEBCF8EF0020704708B5FFF7FCFF62
:1054700008BD704708B5FFF7FCFF08BD704708B5C9
:10548000FFF7FCFF08BD000007B50D480D4B03609A
:10549000FCF757F818B149210B4802F079F80C23B2
:1054A00000226946064800930192FCF726F918B1DC
:1054B0005221054802F06CF803B05DF804FB00BF10
:1054C00090680020007400408CD6000870B5026817
:1054D000224B9A4286B006463DD1002503F5E233C1
:1054E00000951A6C1E481F4C42F000521A641B6C47
:1054F000039503F000530093009B1023019301A92F
:1055000003230293FCF718FB1749E56040234FF093
:10551000606284E80E004FF4806323614FF40063FF
:1055200063614FF40053A36120464FF48073E3613D
:1055300025626562FCF734F918B179210B4802F055
:1055400027F80022B46036201146A663FBF792FFCD
:105550003620FBF7C3FF06B070BD00BF00740040EB
:105560000000024030680020886002408CD60008AD
:1055700013B51C4B002400941A6B42F400121A63FA
:105580001A6B02F400120092009A01941A6B42F412
:1055900080021A631B6B03F48003224621460193A9
:1055A0001020019BFBF766FF1020FBF797FF2246B8
:1055B00021463820FBF75EFF3820FBF78FFF22469D
:1055C00021463B20FBF756FF3B20FBF787FF224697
:1055D00021464520FBF74EFF4520FBF77FFF02B039
:1055E00010BD00BF0038024008B503490348FFF76B
:1055F000EFFC034B187008BDA5680020E8D7000831
:10560000A46800200020704700B517484FF02043E1
:10561000036003F5827389B043604FF48053836263
:1056200006230F2101930393102300220291059377
:1056300001A911238260C260026142618261C2617C
:1056400002624262C2620263426382634264049203
:1056500006930792FDF792FD18B16021034801F00F
:1056600097FF09B05DF804FB0C6D002099D6000887
:10567000F0B5164B1C6887B02CBB01221A60144B86
:1056800000949A6B134842F001029A639B6B039457
:1056900003F001030093009B02274FF4F0630326FD
:1056A0000C2501A90193029704960595FCF744FA8D
:1056B0004EF2B30301A9084801930297039404969C
:1056C0000595FCF739FA07B0F0BD00BFD8060020F9
:1056D0000038024000100240000C024030B58BB090
:1056E00000243C4B00941A6B3B4D42F004021A63B9
:1056F0001A6B02F004020092009A01941A6B42F0B5
:1057000001021A631A6B02F001020192019A0294DB
:105710001A6B42F010021A631A6B02F01002029226
:10572000029A03941A6B42F008021A631A6B02F091
:1057300008020392039A04941A6B42F002021A635D
:105740001B6B03F0020322460493284641F2080132
:10575000049BFCF7D7FA2F23059305A91F4B20487C
:1057600006930794FCF7E8F941F20803059305A9AD
:1057700001232846069307940894FCF7DDF9224696
:1057800021460620FBF776FE0620FBF7A7FE224601
:1057900021460720FBF76EFE0720FBF79FFE2246FF
:1057A00021460820FBF766FE0820FBF797FE2246FD
:1057B00021460920FBF75EFE0920FBF78FFE2246FB
:1057C00021461720FBF756FE1720FBF787FE0BB08C
:1057D00030BD00BF00380240000C02400000111034
:1057E0000008024008B50D480D4BDFF83CE04FF4CF
:1057F000804280E8084000238360C3600261436107
:105800008361C3610362FCF75FFB28B14C2105484B
:10581000BDE8084001F0BCBE08BD00BF5C6D0020C3
:1058200000540040A7D60008801A06007FB5026821
:10583000104B9A421AD1C0230193122302930123E1
:1058400003930323049304230DEB03010A480593F8
:10585000FCF772F900230093084B1A6C42F4001213
:105860001A641B6C03F400130093009B07B05DF8EF
:1058700004FB00BF00540040000402400038024016
:1058800010B594B00023274A0193116C41F0805168
:105890001164126C02F080520192019A224A029322
:1058A000116841F48041116012680F9302F4804244
:1058B00008230292029A10930122642302240B927D
:1058C00011931022052308A808940C920E941294A8
:1058D0001393FCF73DFC00B1FEE70F2303934FF455
:1058E000A0530590069303214FF4805303A804941A
:1058F0000793FCF7DDFD044600B1FEE7FCF772FEFE
:105900004FF47A73B0FBF3F0FBF7F4FD0420FBF7E0
:1059100007FE224621464FF0FF30FBF7ABFD14B0E7
:1059200010BD00BF0038024000700040034B8342AE
:1059300001BF034A1368013313607047B8F00020B9
:1059400010670020000000002DE9F84F2DED028BBC
:105950002D4B1B7804460D4663B100EB41054FF417
:105960007A63AC4203D1BDEC028BBDE8F88F24F81A
:10597000023BF6E71046FAF7D5FD00220023FBF7BD
:10598000C7F80028EFD01EA7D7E900679FED1F8A50
:10599000DFF8849004EB450BA2464FF00008DA458F
:1059A000E1D0AAEB040307EE903A07EE105AF8EEA6
:1059B000E77AB8EE477A67EE887AC7EE876A16EE1E
:1059C000900AFAF7C1FD41EC100B04F0E5FF00224C
:1059D00051EC100B0E4BFAF759FC00220D4BFAF765
:1059E00007FE32463B46FAF703FE42464B46FAF7BD
:1059F0004DFCFBF7D5F82AF8020BD0E7AFF3008097
:105A0000B81E85EB51B8EE3F04670020DB0F49401C
:105A10000000F03F0000A040000054400023C3708D
:105A200043700370837003717047000037B54FF601
:105A3000FF7402254FF6FF70FFF754FB8DE830002E
:105A4000002314220A210A48FFF7F4FB8DE83000F6
:105A500000233C2214210748FFF7ECFB8DE83000BF
:105A600000235A2214210448FFF7E4FB03B030BDA1
:105A70007FD7000887D700089DD7000870B586B08B
:105A800000264FF6FF7004968DF81460FFF72AFB8E
:105A9000414A424913690293D36801939368009382
:105AA0000CCA04A84FF6FF7402F0AAFA02230325D9
:105AB0000193142233460A2139480094FFF7BAFBB8
:105AC0009DF8102033466E2132208DE83000FFF71C
:105AD0004BFB9DF8112033466E2146208DE83000A7
